:020000040800F2
:100000000080012055160008A116000851020008C2
:10001000590200086102000869020008000000009F
:10002000000000000000000000000000953B0008F8
:10003000A116000800000000513B0008913A00089A
:10004000A1160008A1160008A1160008A1160008B4
:10005000A1160008A1160008A1160008A1160008A4
:10006000A1160008A1160008A1160008A116000894
:10007000A1160008A1160008A1160008A116000884
:10008000A1160008A1160008A11600080000000033
:10009000000000000000000000000000A1160008A1
:1000A000A1160008A1160008A1160008A116000854
:1000B000A1160008A1160008A1160008A116000844
:1000C000A1160008A1160008A1160008A116000834
:1000D000A1160008A1160008A116000800000000E3
:1000E000A1160008A1160008A116000800000000D3
:1000F000000000000000000000000000A116000841
:1001000000000000A1160008A1160008A1160008B2
:1001100000000000000000000000000000000000DF
:10012000A1160008A1160008A1160008A1160008D3
:10013000A116000800000000000000000000000000
:10014000000000000000000000000000A1160008F0
:10015000A1160008A1160008A1160008A1160008A3
:10016000A1160008A1160008000000000000000011
:10017000000000000000000000000000000000007F
:1001800000000000A11600080000000000000000B0
:10019000A116000810B5054C237833B9044B13B1F0
:1001A0000448AFF300800123237010BD58060020DF
:1001B00000000000B85B000808B5034B1BB1034901
:1001C0000348AFF3008008BD000000005C0600207B
:1001D000B85B0008A3F5803A704700BF174B002BAF
:1001E00008BF134B9D46FFF7F5FF00218B460F46D6
:1001F0001348144A121A04F0E9FD0E4B002B00D0EC
:1002000098470D4B002B00D0984700200021040098
:100210000D000D48002802D00C48AFF3008004F018
:100220003DFD2000290003F06FFB04F059FB00BFE7
:100230000000080000000000190E000800800120E6
:1002400058060020400A00200000000000000000C6
:100250004FF0100300F00CB84FF0200300F008B886
:100260004FF0300300F004B84FF0400300F000B846
:10027000EFF308804FF0040172460A4201D0EFF319
:1002800009809C46254B196802680A60043142685F
:100290000A60043182680A600431C2680A6004316D
:1002A000F0C147460F6004314F460F600431574696
:1002B0000F6004315F460F60043102690A60083143
:1002C00042690A60043182690A600431C2690A60C5
:1002D0000431034620334FF40076324200D0043319
:1002E00075464FF01006354200D148330C46103C9D
:1002F0002360EFF309820A600431EFF308820A6099
:10030000043172460A600431EFF314820A606046D9
:10031000024B196800F0C2FAFEE7000054590008C9
:1003200000207047036801221B69002118470368F9
:1003300000221B69114618476FF0150070470368CB
:100340001B69184703689B69184703689B6A18472D
:1003500000290CBF6FF01800002070470120704783
:100360006FF0150070476FF015007047704730B59B
:1003700091FAA1F391FAA1F1B3FA83F304685B0057
:100380000325B1FA81F105FA03F3490024EA0303D6
:100390008A401343036030BD7FB52B4B00220728F2
:1003A0004FD8DFE800F004121E2A364E4E4200926B
:1003B0001A6B264842F001021A631B6B03F001031B
:1003C0000093009B07B05DF804FB01921A6B204874
:1003D00042F002021A631B6B03F002030193019BBC
:1003E000F0E702921A6B1B4842F004021A631B6B7F
:1003F00003F004030293029BE4E703921A6B16488E
:1004000042F008021A631B6B03F008030393039B7B
:10041000D8E704921A6B114842F010021A631B6B62
:1004200003F010030493049BCCE705921A6B0C486D
:1004300042F080021A631B6B03F080030593059B57
:10044000C0E7084800F08EF9003802400000024082
:100450000004024000080240000C0240001002406C
:10046000001C02407057000810B54FF4707104462C
:1004700004F00F0400F00EFF0120A04010BD0000AA
:100480004B1C70B504460E46018216D0C1F3031012
:10049000FFF782FF05463046FFF7E6FF238A074A4B
:1004A000656103F00F03206052F82330A36105F16A
:1004B00010031835C4E90255636070BD705A000816
:1004C000B0F9100000F062BF0A46D0E905010AB990
:1004D000FFF74DBF0122FBE708B501F07FFE0020CA
:1004E00008BD000008B50A4B1B684BB100F088FE40
:1004F00000F074FE4FF47A72002304F06FF808BD28
:10050000044B586A4FF47A73B0FBF3F0F7E700BF7F
:10051000F4060020000C004083681A6843681A4201
:1005200014BF01200020704703460122D3E84F0F7B
:10053000C3E8412FC0B20029F8D17047D0E84F3F3F
:10054000C0E8421FD8B2704700B589B000F07AF811
:10055000052101A800F026FA114E124D0424039B38
:10056000019A1A60304600F059FE019B049A1B0460
:100570001360304600F052FE013CF0D10424039B8E
:10058000019A1A60284600F049FE019B049A1B0458
:100590001360284600F042FE013CF0D1DEE700BFC8
:1005A000F0490200801A060007B5014600220190BA
:1005B000022000F063FB00F045F80199084604F0C2
:1005C0009EFE01990246022000F058FB03B05DF840
:1005D00004EB00F041B8000000B5A3B002460B46A2
:1005E00001A8842104F0C0FE832806D9074B1A68AD
:1005F0001B79CDF883208DF88730002802DD01A813
:10060000FFF7D2FF23B05DF804FB00BF915700084D
:100610000FB407B504A951F8040B0191FFF7DCFFF3
:1006200003B05DF804EB04B07047EFF31080C043F3
:1006300000F001007047EFF30580003818BF01207B
:100640007047000008B500F013F8024A1368013340
:10065000136008BD74060020044A136823B1013BEF
:1006600013600BB900F016B8704700BF7406002085
:10067000EFF3108372B6054A117831B90449DB43B0
:1006800003F001030B7001231370704779060020FB
:1006900078060020034B00221A70034B1B7803B12D
:1006A00062B67047790600207806002008B50B482E
:1006B000FFF73AFF28B1FFF7C5FFBFF34F8F20BF09
:1006C000FDE7FFF7B8FF08B1FFF73EFFFFF7ADFF0B
:1006D0000028F9D0012004F003F900BFBC06002077
:1006E00070B51B4C8EB034EA200428BF04460D467A
:1006F00016460021282204A804F068FBCDE9014633
:100700000395FFF79FFF134A13680133012B136012
:1007100009D101AD0FCD104C0FC40FCD0FC40FCDBB
:100720000FC42B68236001AC0FCC0C4D0FC50FCC50
:100730000FC50FCC0FC523682B60094B1B6813B185
:10074000A5F130009847FFF787FF00200EB070BD7D
:100750000101FF807C06002088060020C0060020E2
:10076000800600200FB407B501210648CDF804E04B
:10077000FFF7E4FE019A014610B90348FFF7B0FF06
:10078000FFF794FF840600200001FF8008B50446AF
:100790000121064876461546FFF7D0FE20B93246BD
:1007A00029462046FFF79CFFFFF780FF84060020C4
:1007B000F0B52C4E2C4F85B000243546214656F816
:1007C000042B38460134FFF723FF0D2CF6D1AB6C18
:1007D00002936B6C01932B6C244C0093D5E90E2390
:1007E000696B2348FFF714FF21682248FFF710FFC9
:1007F000E16AA26AA36AA06A266BE76B000CCDE9E6
:1008000001670090C3F307231B48D2B2FFF700FF34
:10081000A36A1E0603D5616B1848FFF7F9FEA36AA9
:10082000180403D5A16B1648FFF7F2FEEB6C19070D
:1008300012D51448FFF7ECFE2B6DDA070FD51248DE
:10084000FFF7E6FEEB6C5B074CBF1048104805B0A5
:10085000BDE8F040FFF7DCBE0E48FFF7D9FE0E48BA
:10086000EEE700BF580700209657000800ED00E0B3
:10087000A4570008F3570008015800085058000812
:100880005E5800086C5800087B580008AB580008F8
:10089000B75800089B5800088858000813B504464C
:1008A0001548FFF7B5FE302C17D0402C1AD0202C5D
:1008B0001DD11248124CFFF7ABFE1248FFF7A8FEFD
:1008C000FFF776FF1048FFF7A3FE104A10490023F8
:1008D0000093D26B2046FFF759FF0E480E4CFFF7EE
:1008E00097FEEAE70D480E4CFFF792FEE5E70D484C
:1008F0000D4CFFF78DFEE0E7C3580008EC580008E8
:100900003E01FF80195900082459000858070020AB
:1009100043590008FB5800083F01FF8004590008B4
:100920004001FF800F5900083D01FF8070B50E4661
:1009300004461546FFF7A4FD013609D020460021E4
:10094000FFF7C2FD29462046BDE87040FFF7B8BD5D
:1009500070BD38B5036804460D465AB1826813600D
:1009600020460121FFF7B0FD29462046BDE838406A
:10097000FFF7A6BDC2681B04F1E70022FFF7D6BF50
:1009800037B50D4604460192FFF77AFD013507D0D1
:10099000019A0021204603B0BDE83040FFF7D9BFDF
:1009A00003B030BD0022FFF7EBBF000008B501F037
:1009B000C3FB00F077FE01F0B1FB01F0BDFB024B81
:1009C00001221A6008BD00BFF40600201FB5431CB9
:1009D00010D105B05DF804FB83420AD18968039009
:1009E00000F058FC0398002105B05DF804EB00F01E
:1009F000CDBC0C31B1F900305A1CEDD100230246B8
:100A0000009302481946FFF7C1FE00BF3001018084
:100A1000884207B502460AD0431C08D0013105D0F0
:100A20000023054800931946FFF7B0FE014608462B
:100A300003B05DF804FB00BF30010180B1F9003064
:100A40005A1C01D118467047834201D1486870474B
:100A50000C31F3E7421C13B504460AD0FFF7EEFF52
:100A6000431C06D100230448009322461946FFF791
:100A70008DFE02B010BD00BF300101806FF01C0080
:100A800070476FF0150070470120704700207047D5
:100A900070470000F8B5074E15460C468F18BC424B
:100AA00005D014F8011B304600F0C2FDF7E72846D8
:100AB000F8BD00BFAC07002038B511F001048DB2BD
:100AC00005D0084800F0A6FC041E18BF0124EB0660
:100AD00005D5044800F0B4FC08B144F010042046E9
:100AE00038BD00BFAC07002010B5044604F006F97D
:100AF000204610BD10B50C462AB1044800F086FD12
:100B00002070012010BD1046FCE700BFAC0700209C
:100B100038B51D46074B0360074B1B68044633B9C5
:100B2000064800F0DDFC0548294600F0BFFC2046E1
:100B300038BD00BF6059000840070020AC07002006
:100B40000020704700207047074A0849136818447E
:100B5000884289BF064B10600C224FF0FF308CBFDB
:100B60001A601846704700BF9C020020007C0120DC
:100B70003C0A0020012070477047704708B5FFF716
:100B8000FBFF08BD08B5FFF7F8FF08BD037803F0C9
:100B90000303012B09D0037803F00302012A04D0D8
:100BA00043F0020303700120704700207047037870
:100BB00023F0030343F00103037070473F2870B52F
:100BC00004462FDC184D55F820305A1C13D102284A
:100BD00011DCFFF7B7FF034658B92046FFF7B0FF17
:100BE000034630B9114E3378BFF35B8FDB0704D572
:100BF0000F4B45F82430184670BD3046FFF7C6FF4E
:100C00000028F5D04FF41653032202210848FFF7BD
:100C10007FFF3046FFF7CBFF064A07490448FFF73E
:100C2000A9FFE5E70023E6E79C010020F806002085
:100C3000FC06002098010020910A000838B50546FE
:100C4000FFF7BCFF0B4B002443F8254030B903F0FD
:100C500041FE092303604FF0FF3038BD03685B6934
:100C60009847051E04DA03F035FE6D420560F2E791
:100C70002046F2E79C010020FFF7E0BF13B5CDE965
:100C80000021FFF79BFFDDE9002140B903F022FEC0
:100C9000092303604FF0FF34204602B010BD036803
:100CA000DB689847041EF7DA03F014FE6442046020
:100CB000F0E708B5131E07DA03F00CFE16230360F5
:100CC0004FF0FF33184608BDFCD0FFF7D7FF40EACE
:100CD000E073F7E713B5CDE90021FFF76FFFDDE91A
:100CE000002140B903F0F6FD092303604FF0FF3403
:100CF000204602B010BD03689B689847041EF7DACF
:100D000003F0E8FD64420460F0E7002A08B503DB65
:100D1000BDE80840FFF7DEBF03F0DCFD16230360EB
:100D20004FF0FF3008BD13B5CDE90021FFF746FFB6
:100D3000DDE9002140B903F0CDFD092303604FF048
:100D4000FF34204602B010BD03681B699847041E9B
:100D5000F7DA03F0BFFD64420460F0E7FFF7E3BF9A
:100D600010B5FFF72BFF30B903F0B4FD0923036082
:100D70004FF0FF3010BD03689B699847041E04DAEA
:100D800003F0A8FD64420460F2E70020F2E70000EF
:100D90000A4D08B52B680446986803F077FE2B6867
:100DA000D86803F073FE0120FFF7DAFF0220FFF797
:100DB000D7FF0CB1FFF7C8FBFEE700BFE00500203E
:100DC0001FB5039003F092FF039A034620B90090E9
:100DD00001460348FFF7DAFC05B05DF804FB00BFED
:100DE0001F01018003F08ABF70470000084B0949CA
:100DF00098684FF00053C21802F16042126843F83D
:100E0000042B8B42F7D1024B4FF000529A6070478F
:100E100000ED00E09401002008B5FFF7E7FFFFF7C1
:100E2000C5FD01F02FFAFFF7DFFF08BD2DE9F74FF1
:100E3000446894F83A100646002955D1016849687B
:100E400088477168096A814205464DD0206AE16889
:100E5000A6682562281A0140384886428C464FF021
:100E6000000E39D094F83BB0D4E90A5A0027A1FB10
:100E70000001BBF1000F46D0CBF1200801FA08F8C1
:100E800020FA0BFCABF1200E21FA0EFE4CEA080C06
:100E90004CEA0E0C2D1821FA0BFEABF120094AEB9F
:100EA000010ACBF120080EFA0BF10CFA09F941EA1C
:100EB00009012CFA08F80CFA0BF02B1A41EA080188
:100EC00000936AEB01030193DDE90023BB4208BFF5
:100ED000B2420CD2C4E90A23D4E90C0110EB0C0095
:100EE00041EB0E01C4E90C0103B0BDE8F08F009B9B
:100EF0001CF1010C4EF1000E9A1B019B63EB0703E2
:100F0000C4E90A23E8E732463B4603F067FB12EBED
:100F1000050843EB0A09B94508BFB04584468E462B
:100F200002D2C4E90A89D7E710F1010C41F1000EA1
:100F3000B8EB060269EB0703E2E700BF40420F008F
:100F4000824206D98A420BD9884294BF00200120F0
:100F50007047884206D98A428CBF00200120704722
:100F600001207047002070472DE9F74FD0F804802A
:100F700098F83A300746002B40F0818098F83930D5
:100F8000002B7CD1FFF752FF7E683A6873680192AC
:100F9000002B66D0D6E90C01D3E90023994208BFA3
:100FA000904205D3019B5B6903B0BDE8F04F184741
:100FB000141A63EB0105D6E90623AB4208BFA2422F
:100FC000D6F8109006D3B2682E4B9A4219D1A1459B
:100FD00028BFA146326A019B9144F2681B6909EA65
:100FE00002021046019298473B685B689847019A55
:100FF0000146D8F82000FFF7A3FF00283FD03B6848
:10100000D1E796F83B30EBB1A3F1200CC3F12002FD
:1010100024FA02F204FA03F005FA03F104FA0CFCD4
:10102000194C41EA0C0111430019164A4FF0000413
:101030004FF0000344EB010103F0D0FA814528BFD3
:101040008146C7E71048A2FB04AB02FB05BB1AEBC5
:1010500000004FF000010B4A4FF000034BEB010181
:10106000EAE7D8F81030D8F82000D8F80C20184457
:10107000019B1B69104003B0BDE8F04F184703B057
:10108000BDE8F08F40420F003F420F002DE9F04FC6
:10109000436893F8382085B00546002A63D193F859
:1010A0003A30002B5FD103681B6898472B68DB69D7
:1010B000984703682BB92D4800931A461946FFF745
:1010C00065FB1F21012202FA01F4A3425FFA81FAB3
:1010D00002D00139F7D18A464668321F1C2A05D949
:1010E0000023234800931A461946E8E71C4614F1EA
:1010F000FF384FF000031F494FF0070743F1FF3956
:101100009740C1FB078922464046494603F066FAEC
:101110006B682A6803934FF00008C3E9008852689F
:10112000894683469047039B0122186202FA06F61D
:101130006B6800210020013EC3E90A01C3E90C01EC
:10114000C3E903672846C3E906B99C6083F83BA05E
:101150001A8783F83A80FFF769FE284605B0BDE894
:10116000F04FFFF701BF05B0BDE8F08F0E0104801E
:101170000501048040420F0070B50446FFF762FA93
:101180002368DB689847636893F83A201AB1BDE892
:101190007040FFF761BA012283F8392063685B6809
:1011A000A3B12046FFF742FE65686E68D5E90C01E1
:1011B000D6E90023994208BF904207D3F3686B60D9
:1011C0002B68002BEAD0B0689847E7E763680022F5
:1011D00083F839202046FFF7C7FED8E738B5044624
:1011E000FFF754FFFFF72EFA2046FFF71FFE636854
:1011F000D3E90C45FFF730FA2046294638BD704741
:1012000000487047B4590008024B1B680BB10248F4
:1012100018477047A0020020B4590008034B596AD0
:101220005A6A521A8242FBD3704700BF000C00403A
:1012300030B591FAA1F391FAA1F1B3FA83F384687E
:101240005B000325B1FA81F105FA03F3490024EAB2
:1012500003038A401343836030BD30B591FAA1F394
:1012600091FAA1F1B3FA83F3C4685B000325B1FAE4
:1012700081F105FA03F3490024EA03038A4013438A
:10128000C36030BD012A02D0022A18BF0022FFF736
:10129000E4BF00002DE9F84300F00F023A4B1FFABB
:1012A00080F9C0F3031053F82270C1F3831801F0E2
:1012B00007060D46FFF770F8B8F10F0F0CBF0322B9
:1012C000424639460446FFF7B3FF022E28D0032ECC
:1012D00058D0711E4B424B4197FAA7F2B2FA82F2F4
:1012E00021685200032000FA02F221EA020197FA73
:1012F000A7F2B2FA82F252009340013E0B43012E54
:10130000236005D863682A074CBF3B43BB43636037
:10131000C5F3011239462046BDE8F843FFF7B2BFD6
:1013200019F0080FC5F3832217D03B0A93FAA3F1F3
:10133000B1FA81F1406A93FAA3F389004FF00F0CE0
:10134000B3FA83F30CFA01F19B0020EA010102FADF
:1013500003F30B4363620223BEE797FAA7F1B1FAE6
:1013600081F1036A89000F2000FA01F123EA0101EB
:1013700097FAA7F3B3FA83F39B0002FA03F30B4344
:101380002362E8E73346A7E7705A000838B500F053
:101390000F021F4BC0F3031053F822500C46FEF708
:1013A000FBFF95FAA5F2B2FA82F35A000168032313
:1013B000934095FAA5F2B2FA82F20B405200D34064
:1013C000013B012B1AD8E31E022B436809D82B439B
:1013D000032C43601AD101222946BDE83840FFF7AB
:1013E00051BF23EA0503012C4360F4D0022C0BD03B
:1013F00029460022BDE83840FFF72FBF04F0FD0367
:10140000012BE8D0052CF1D10222E5E7052CEEE70F
:10141000705A00084368094A9B0182B0D3581A6881
:10142000120706D5002201921A6801925A680192A9
:10143000019A1868C0F3401002B07047F807002006
:101440004368034A9B01D3581868C0F3C010704723
:10145000F807002003464068134A810110B41C6855
:101460008C5002EB80109A684260DA6882601A69D8
:10147000C2605A6902611A6A82610022C284C26132
:101480008284C2858285B3F91A20013205D10823EE
:101490005DF8044B436100F05ABDB3F918300133D5
:1014A0000CBF04230C23F3E7F80700208160FFF74B
:1014B000D1BF0000094B98420BD0A3F54C43984292
:1014C00009D003F55043984214BF4FF0FF3002207B
:1014D0007047002070470120704700BF0010014096
:1014E000F0B50E4685B04149044630461546FFF733
:1014F000B1FA3F4907462846FFF7ACFA014638469D
:10150000FFF786FA022E20600AD0032D08D0374953
:101510000220FFF79FFAB84244D13648FFF722F97C
:101520000127354B206898424FF000033CD10193CE
:10153000324B5A6C42F010025A645B6C03F0100399
:101540000193019BFFF7B6FF284960603046FFF723
:101550003DFA28462649FFF739FA701C03D00121CD
:101560003046FFF713FF691C03D001212846FFF71F
:101570000DFF00234FF41652C4E90223C4E90433DB
:101580002362268365832046FFF764FF5FB31C4B0D
:101590001C4801221A6021464C2205B0BDE8F040EB
:1015A00003F006BC0027BCE7174A90420FD002F5B3
:1015B00050429042C6D10393104B5A6C42F0200225
:1015C0005A645B6C03F020030393039BBAE7029316
:1015D0000A4B1A6C42F400321A641B6C03F4003399
:1015E0000293029BAEE705B0F0BD00BF285A000889
:1015F000E0590008B05A00080010014000380240CD
:1016000040070020AC0700200044004038B5456882
:1016100004462046FFF7FEFE0028FAD0AD01034B3A
:101620005B595868C0F3080038BD00BFF8070020B8
:1016300070B5466805460C462846FFF701FF0028AE
:10164000FAD0034BB601C4F308049B595C6070BD2B
:10165000F8070020DFF830D0002103E00B4B5B5887
:10166000435004310A480B4B42189A42F6D30A4AB7
:1016700002E0002342F8043B084B9A42F9D300F001
:10168000A9FCFEF7ABFD704700800120C45B000899
:10169000980100205806002058060020400A00202B
:1016A000FEE7704708B50B4B1A6842F400721A60E7
:1016B0001A6842F480621A601A6842F480721A60F2
:1016C000032000F009F80F20FEF706FFFFF7E9FFFF
:1016D000002008BD003C02400749CA6822F4E062CD
:1016E0000302120403F4E063120C134343F0BF63DC
:1016F00043F40033CB60704700ED00E02DE9F34187
:10170000044618B9012002B0BDE8F0810368DD0786
:1017100010D4236898075BD423681A0700F19D80D2
:1017200023685B0700F1BB80A269002A40F01C819E
:101730000020E8E7A54B9A6802F00C02042A07D0C3
:101740009A6802F00C02082A0AD15A68510207D599
:101750009E4B1B689A03DCD56368002BD9D1D1E777
:101760006268B2F5803F11D11A6842F480321A6083
:10177000FEF7B8FE954E054633689B03C9D4FEF7C5
:10178000B1FE401B6428F7D90320BCE78F4DB2F5AA
:10179000A02F2B6807D143F480232B602B6843F4E0
:1017A00080332B60E4E723F480332B602B6823F431
:1017B00080232B60002ADBD1FEF794FE06462B68BF
:1017C0009F03A6D5FEF78EFE801B6428F7D9DBE7C2
:1017D0007E4B9A6812F00C0F07D09A6802F00C0248
:1017E000082A11D15B685E020ED4784B1A689507FF
:1017F00002D5E268012A85D11A68216922F0F8022F
:1018000042EAC1021A6087E7E268714BB2B1012275
:101810001A60FEF767FE6D4D06462B68980707D5E0
:101820002B68226923F0F80343EAC2032B6073E7B5
:10183000FEF758FE801B0228EFD9A5E71A60FEF7D5
:1018400051FE624E0546336899077FF565AFFEF796
:1018500049FE401B0228F6D996E762695D4B7AB1D2
:1018600001221A60FEF73EFE584E0546736F9F0731
:101870003FF556AFFEF736FE401B0228F6D983E748
:101880001A60FEF72FFE514E0546736F98077FF5DD
:1018900047AFFEF727FE401B0228F6D974E74B4BF3
:1018A0001A6C12F0805228D101921A6C42F08052C8
:1018B0001A641B6C03F080530193019B0127464D72
:1018C0002B68D9051BD5A368404D012B27D12B6F61
:1018D00043F001032B67FEF705FE3C4E054641F23F
:1018E0008838336F9B0739D5002F3FF41DAF374A37
:1018F000136C23F08053136416E70027DFE72B688F
:1019000043F480732B60FEF7EDFD06462B68DA0585
:10191000D9D4FEF7E7FD801B0228F7D934E7052B61
:1019200004D12B6F43F004032B67D0E72A6F22F01A
:1019300001022A672A6F22F004022A67002BCAD10B
:10194000FEF7D0FD41F2883806462B6F9807CBD5BD
:10195000FEF7C8FD801B4045F7D915E7FEF7C2FD2D
:10196000401B4045BDD90FE7184DAB6803F00C0391
:10197000082B3FF4C7AE194E0023022A336035D13D
:10198000FEF7B0FD07462B68990129D4D4E9073248
:101990001343626A43EA8213E26A43EA0263A26A79
:1019A0005208013A43EA02436B6001233360FEF7B9
:1019B00099FD064D04462B689A013FF5B9AEFEF736
:1019C00091FD001B0228F6D9DEE600BF0038024078
:1019D00000004742800E47420070004060004742CE
:1019E000FEF780FDC01B0228CDD9CDE6FEF77AFDBB
:1019F00004462B689B017FF59BAEFEF773FD001B31
:101A00000228F6D9C0E600BF134908B58B6803F079
:101A10000C03042B1CD0082B1CD14A684B68496866
:101A200013F4800314BF0D480D48C1F3881118BF8B
:101A3000002302F03F02A1FB000102F0CFFD064BA4
:101A40005B68C3F3014301335B00B0FBF3F008BDF7
:101A50000248FCE70248FAE70038024000127A0028
:101A60000024F4002DE9F0410D46044610B9012090
:101A7000BDE8F081434B1A6802F00F028A4227D377
:101A8000226897072CD4D00740D43E4B1A6802F046
:101A90000F02AA4265D8226851076BD4130707D5F5
:101AA000394A2169936823F4604343EAC103936090
:101AB000FFF7AAFF344B354A9B68C3F30313D35C8B
:101AC000D840334B18600F20FEF706FD0020CFE70B
:101AD000CAB21A701B6803F00F038B42C7D1CFE75D
:101AE000294B12F0040F1EBF996841F4E051996030
:101AF000160742BF996841F4604199602249A06885
:101B00008B6823F0F00303438B60BCE762681E4BD5
:101B1000012A1CD11B6813F4003FA8D01A4EB368E9
:101B200023F003031343B360FEF7DCFC41F2883873
:101B30000746B368626803F00C03B3EB820FA4D0CE
:101B4000FEF7D0FCC01B4045F3D9032090E7911E5F
:101B500001291B6802D813F0007FDEE713F0020FA3
:101B6000DBE7EAB21A701B6803F00F03AB427FF4A5
:101B70007EAF90E70449E0688B6823F4E0530343A9
:101B80008B608BE7003C024000380240F95A0008A5
:101B9000A4020020044B054A9B68C3F38223D35C54
:101BA000034A1068D840704700380240095B0008BB
:101BB000A4020020044B054A9B68C3F34233D35C64
:101BC000034A1068D840704700380240095B00089B
:101BD000A40200200F2303600B4B9A6802F003025B
:101BE00042609A6802F0F00282609A6802F4E05261
:101BF000C2609B68DB0803F4E0530361034B1B687E
:101C000003F00F030B60704700380240003C0240B5
:101C100070470000224A036890420ED0B0F1804F16
:101C20000BD0A2F57C42904207D002F58062904230
:101C300003D002F58062904215D14A6823F0700308
:101C40001343174A904219D0B0F1804F16D0A2F535
:101C50007C42904212D002F5806290420ED002F592
:101C6000806290420AD00F4A904207D002F580620B
:101C7000904203D002F58062904203D1CA6823F4F7
:101C80004073134303608B68C3620B688362044B29
:101C9000984204BF0B69036301234361704700BF8F
:101CA000000001400040014010B50446A0B190F88A
:101CB000393003F0FF021BB980F83820FFF7A8FF86
:101CC0000223206884F83930211DFFF7A3FF012388
:101CD00084F83930002010BD0120FCE7036A10B5FC
:101CE00001248C4023EA04030362036A02FA01F12F
:101CF0000B43036210BD000010B5044601220068CA
:101D0000FFF7ECFF2368064A934202BF5A6C42F485
:101D100000425A641A6842F001021A60002010BDA5
:101D2000000001402DE9F8430368C1681A690446C0
:101D300022F440520A431A612569A268D968C06931
:101D40002A43656921F416412A4321F00C0102431C
:101D50000A43DA605A69A16922F440720A43B0F575
:101D6000004F5A61774A79D1934203D002F58062DD
:101D7000934243D1FFF71EFF636819254FF06408B3
:101D800068435B00B0FBF3F3B3FBF8F31F01FFF70D
:101D900011FF636868435B00B0FBF3F6FFF70AFFCF
:101DA000636868435B00B0FBF3F3B3FBF8F308FB35
:101DB0001363DB003233B3FBF8F35B0003F4F87614
:101DC000FFF7F8FE626868435200B0FBF2F9FFF7D4
:101DD000F1FE6368226868435B00B0FBF3F3B3FB7A
:101DE000F8F308FB1393DB003233B3FBF8F303F093
:101DF00007033B4433449360BDE8F883FFF7CAFE12
:101E0000636819254FF0640868435B00B0FBF3F387
:101E1000B3FBF8F31F01FFF7BDFE636868435B0087
:101E2000B0FBF3F6FFF7B6FE636868435B00B0FBF8
:101E3000F3F3B3FBF8F308FB1363DB003233B3FBBC
:101E4000F8F35B0003F4F876FFF7A4FE62686843DA
:101E50005200B0FBF2F9FFF79DFEBAE7934202D0C1
:101E6000394A93423FD1FFF7A5FE636819254FF029
:101E7000640868439B00B0FBF3F3B3FBF8F31E0167
:101E8000FFF798FE636868439B00B0FBF3F7FFF72A
:101E900091FE636868439B00B0FBF3F3B3FBF8F378
:101EA00008FB13731B013233B3FBF8F303F0F007A5
:101EB000FFF780FE626868439200B0FBF2F9FFF71B
:101EC00079FE6368226868439B00B0FBF3F3B3FBC1
:101ED000F8F308FB13931B013233B3FBF8F303F061
:101EE0000F033B4386E7FFF755FE636819254FF064
:101EF000640868439B00B0FBF3F3B3FBF8F31E01E7
:101F0000FFF748FE636868439B00B0FBF3F7FFF7F9
:101F100041FE636868439B00B0FBF3F3B3FBF8F347
:101F200008FB13731B013233B3FBF8F303F0F00724
:101F3000FFF730FE626868439200B0FBF2F9FFF7EA
:101F400029FEBEE70010014000140140704710B5A3
:101F5000044640B390F8393003F0FF021BB980F813
:101F60003820FFF7F3FF2268242384F83930D36840
:101F700023F40053D3602046FFF7D4FE23681A6988
:101F800022F490421A615A6922F02A025A61DA68F0
:101F900042F40052DA6000202023E06384F83930F4
:101FA00084F83A3010BD0120FCE77FB502210F23F1
:101FB000CDE901314FF48052002301A8CDE903326D
:101FC0000593FFF74FFDB0FA80F0400907B05DF8C8
:101FD00004FB00000F49D1F8883043F47003C1F8C6
:101FE00088300D4B1A68002042F001021A60986098
:101FF0001A6822F0847222F480321A60074A5A600A
:102000001A6822F480221A60D8604FF000638B6057
:10201000704700BF00ED00E000380240103000249F
:1020200010B58EB01D4B002400941A6C42F0805203
:102030001A641B6C1A4A03F080530093009B0194AE
:10204000136823F4404343F400431360136803F41C
:1020500040430193A042019B4FF0010302930CBF48
:102060004FF480334FF4A023039302224FF48003F4
:10207000CDE9082308214FF4A8730420CDE90A1301
:102080000723CDE90C0302A8FFF738FB18B9FFF7C7
:102090008CFF0EB010BD2046FBE700BF00380240A9
:1020A0000070004010B58EB000241A4B00941A6CDA
:1020B00042F080521A641B6C174A03F0805300935D
:1020C000009B0194136823F4404343F400431360DE
:1020D0001368039403F440430193019B0323029389
:1020E00001230593102306930A934FF4A871042348
:1020F000CDE90B130222072302A8CDE908240D9392
:10210000FFF7FCFA18B9FFF750FF0EB010BD2046DC
:10211000FBE700BF003802400070004008B5012016
:10212000FFF77EFF28B9FFF7BDFF10B90148FEF7A2
:1021300019FB08BDE55A0008174A1849936803F0CF
:102140000C03042B10B50DD0082B0DD0144B0B60D5
:10215000114B144A9B68C3F30313D25C0B68D34042
:102160000B6010BD104BF2E7546850685268630270
:10217000C2F388124CBF0C4B094B00F03F00B3FB7D
:10218000F0F35343044A5268C2F301420132520051
:10219000B3FBF2F3DBE700BF00380240A4020020EB
:1021A0000024F400F95A000800127A00074B084A8C
:1021B00013601A69910707D5DA68920704D56FF0A2
:1021C00002021A61FFF720B8704700BF000C004000
:1021D000BC08002000487047145B000830B589B087
:1021E00001A903A8FFF7F6FCFFF7D4FC0023029334
:1021F0001E4B01901A6C1E4C42F008021A641A6CB5
:1022000002F008020292029A1A6A42F008021A6266
:102210001A6A22F008021A62069AA3F50B332360A9
:102220004FF0FF33E360134BF2B9B0FBF3F001382A
:10223000002560600E482561A5606561FFF734FDEB
:102240000D4B0E4A9B68C3F808210D4B4FF48022BA
:102250005A6007482946FFF74FFD2268D36823F0EC
:102260000203D36009B030BD4000DEE70038024011
:10227000BC08002040420F0000ED00E0AD21000846
:1022800000E100E004480268D36823F00203D36051
:102290000021FFF731BD00BFBC080020014B586A88
:1022A000704700BF000C0040054B1B686FF0020236
:1022B00058631A61DA6842F00202DA60704700BFC0
:1022C000BC080020064B1B686FF002021A615A69B5
:1022D00042F002025A61DA6842F00202DA607047A4
:1022E000BC080020034B1A68D36823F00203D360B4
:1022F000704700BFBC080020024B1B686FF0020251
:102300001A617047BC08002082B001900091009BC8
:10231000002B05D0019B9B68019A12681A6005E0AA
:10232000019B1A68019BDB6812041A6000BF02B0AF
:10233000704782B00190019B5B681A68019B1B6823
:102340001340002B01D0012300E00023184602B007
:10235000704700B583B001900B46ADF80230019B89
:102360001A460023136053609360D3601361536176
:102370009361019BBDF9022011461846FEF7FDFA54
:10238000019B184603B05DF804FB00B583B00190D3
:10239000019B1846FFF7CDFF0346184603B05DF8D2
:1023A00004FB00B583B001900B46ADF80230019BF1
:1023B0001A460023136053609360D3601361536126
:1023C0009361019BBDF9022011461846FEF7EAFA17
:1023D000019B184603B05DF804FB00B583B0019083
:1023E0000091019B00991846FFF78EFF00BF03B0D4
:1023F0005DF804FB10B584B001900B468DF80330F6
:10240000002303935849019A13465B0013449B0031
:102410000B4408331B78002B5BD19DF80330002B55
:1024200025D11C20FEF7CCFC03461C464E49019AE0
:1024300013465B0013449B000B44B3F9003019466C
:102440002046FFF786FF4849019A13465B00134474
:102450009B000B4404331C604349019A13465B0004
:1024600013449B000B44083301221A7028E09DF8A6
:102470000330012B24D11C20FEF7A2FC03461C468E
:102480003949019A13465B0013449B000B44B3F98E
:10249000003019462046FFF784FF3349019A13465E
:1024A0005B0013449B000B4404331C602E49019ACB
:1024B00013465B0013449B000B44083302221A703E
:1024C000019A13465B0013449B00274A134403936D
:1024D00045E02549019A13465B0013449B000B44D9
:1024E00008331B78012B0CD19DF80330002B08D149
:1024F000019A13465B0013449B001B4A1344039349
:102500002DE01949019A13465B0013449B000B44CC
:1025100008331B78022B0CD19DF80330012B08D116
:10252000019A13465B0013449B000F4A1344039324
:1025300015E00D49019A13465B0013449B000B44C0
:1025400008331B780A2B08D1019A13465B00134409
:102550009B00054A1344039301E000230393039B6C
:10256000184604B010BD00BFC802002000B585B0F9
:102570000190019B0293029B002B15D0029B1B7ABA
:102580000A2B08D1029B5B681846FDF7C5FF03467E
:102590008DF80F300BE0029B5B681846FFF7F5FEE5
:1025A00003468DF80F3002E000238DF80F309DF8C0
:1025B0000F30184605B05DF804FB00B585B00190FA
:1025C0000B468DF80330019B0393019B002B07D032
:1025D000039B5B689DF8032011461846FFF7FDFE3C
:1025E00000BF05B05DF804FB00B585B00190019B0C
:1025F0000393039B1B7A022B0BD1039B5B68002B7D
:1026000003D01C211846FEF7EDFB039B00221A7233
:102610000EE0039B1B7A012B0AD1039B5B68002B06
:1026200003D01C211846FEF7DDFB039B00221A7223
:1026300000BF05B05DF804FB10B582B000238DF833
:10264000073000238DF80630804BD3E90A01804B18
:10265000D3E9042301F070FF0346002B05D17C4B26
:10266000D3E904237949C1E90A23784B5B6A184608
:10267000FFF77CFF03468DF80530744BD3F8D83054
:10268000B3F1FF3F06D0714BD3F8D83001336F4A16
:10269000C2F8D8306D4B93F8EE30002B12D16B4B53
:1026A000012283F8EE20694B012283F8EC20674B6E
:1026B00093F8FD20674B5A72644B93F8FD20654BED
:1026C0001A72CCE0614B93F8EC30032B00F08C8055
:1026D000032B00F39F80012B02D0022B17D099E02F
:1026E0005A4B93F8FA309DF805209A4240F0A880A2
:1026F000564B042283F8EC20544B93F8FC20554BA6
:102700005A72524B93F8FC20524B1A7298E04F4B7E
:1027100093F8FB204D4B93F8FA309A4212D14B4B71
:10272000002283F8ED20494B032283F8EC20474B2D
:1027300093F8FD20474B1A72444B93F8FD20454B0C
:102740005A727FE0414B93F8ED30012B36D13F4B6D
:1027500093F8F9309DF805209A420AD13B4B0222AA
:1027600083F8ED20394B93F8F920384B83F8FB20A0
:1027700068E0364BD3F8D840344BD3E924014FF00E
:102780000002354B01F070FC02460B4643EC172B60
:10279000B0EE470AF0EE670A01F02AFA53EC102B6C
:1027A0001046194601F0FAFE03469C424AD3274BD5
:1027B00093F8FA20254B83F8FB2043E0234B93F852
:1027C000FA309DF805209A423CD1204B012283F833
:1027D000ED201E4B0022C3F8D8201C4B93F8F920A3
:1027E0001A4B83F8FB202DE0184B93F8F9309DF835
:1027F00005209A4228D1154B012283F8EC20134B77
:1028000093F8FD20134B5A72104B93F8FD20114B97
:102810001A7219E00D4B93F8F9309DF805209A4291
:102820001CD10A4B022283F8EC20084B022283F8C9
:10283000ED20064B93F8F920044B83F8FB200DE0C4
:1028400000BF0CE000BF0AE000BF08E01009002054
:10285000A8020020000900200000104000BF9E4B8D
:10286000D3F88C309D4A127A11461846FFF7A5FE20
:10287000994BD3E916019A4BD3E9002301F05CFE92
:102880000346002B05D1964BD3E900239249C1E9B9
:102890001623914B5B6D1846FFF768FE03468DF8D3
:1028A00005308D4BD3E910018D4BD3E9022301F0A4
:1028B00043FE0346002B05D1894BD3E90223864909
:1028C000C1E91023844BDB6B1846FFF74FFE03462C
:1028D0008DF80430804BD3E90401814BD3E9062302
:1028E00001F02AFE0346002B05D17D4BD3E90623D8
:1028F0007949C1E90423784BDB681846FFF736FEB7
:1029000003468DF80330744BD3F8E030B3F1FF3F4A
:1029100006D0714BD3F8E03001336F4AC2F8E03093
:102920006D4BD3F8E430B3F1FF3F06D06A4BD3F8D8
:10293000E4300133684AC2F8E430674BD3F8E8303A
:10294000B3F1FF3F06D0644BD3F8E8300133624A5D
:10295000C2F8E830604B93F8F830002B22D15E4B80
:10296000012283F8F8205C4B012283F8F2205A4BB5
:10297000D3E932235849C1E93023574BD3E93223F5
:102980005649C1E90023544B012283F8F420524BED
:10299000012283F8F620504B93F805214F4BDA7251
:1029A00000F049BC4C4B93F8F230012B16D14B4B45
:1029B0005A7A494B93F804319A4240F0CA81464B07
:1029C000022283F8F220444B012283F8F320424B89
:1029D000D3E930234149C1E90023BAE13F4B5A7A98
:1029E0003D4B93F805319A4214D13B4B002283F8BA
:1029F000F320394B012283F8F220374BD3E93223FD
:102A00003549C1E93023344BD3E932233349C1E995
:102A100000239EE100238DF8073000238DF8063057
:102A20002D4B93F8F330012B02D0022B5AD0E6E065
:102A30002A4BD3E90001284BD3E9342301F07CFD74
:102A40000346002B1ED1244B93F80221224B93F80E
:102A500001319A4216D1204B032283F8F3201E4BFA
:102A60000022C3F8E4201C4BD3E930014FF00002F0
:102A70004FF0804301F022FC02460B461649C1E9A3
:102A8000302349E1154BD3E90001134BD3E932233D
:102A900001F052FD0346002B00D03DE10E4B93F8B0
:102AA00003210D4B93F801319A4240F035810A4BD6
:102AB000022283F8F320084B0022C3F8E420064BDF
:102AC000D3E9300102460B4601F018F902460B46E5
:102AD0000149C1E930231FE110090020000900204D
:102AE000A8020020AC4B93F80221AB4B93F80131C4
:102AF0009A4216D1A84B032283F8F320A64B00225A
:102B0000C3F8E420A44BD3E930014FF000024FF0AA
:102B1000804301F0D3FB02460B469F49C1E93023B5
:102B2000FBE09D4BD3F8E4409B4BD3E92E014FF0E3
:102B300000029A4B01F098FA02460B4643EC172B21
:102B4000B0EE470AF0EE670A01F052F853EC102B92
:102B50001046194601F022FD03469C4203D301238F
:102B60008DF80630D9E08C4BD3E930018A4BD3E99C
:102B7000322301F0E1FC0346002B1CD1864B93F875
:102B80000321854B93F801319A4214D1824B0222E2
:102B900083F8F320804B0022C3F8E4207E4BD3E976
:102BA000300102460B4601F0A9F802460B467A496D
:102BB000C1E93023B1E07A4BD3E90001764BD3E988
:102BC000322301F0B9FC0346002B00D1A5E09DF8AB
:102BD0000330184601F0DEF96F4BD3E92A2301F0E8
:102BE000ABFC0346002B00D097E06B4BD3E93223BC
:102BF0006949C1E9302301238DF806308DE0664B29
:102C000093F80321644B93F801319A4214D1624B3B
:102C1000022283F8F320604B0022C3F8E4205E4BCD
:102C2000D3E9300102460B4601F068F802460B4634
:102C30005949C1E9302370E0574BD3F8E440564B73
:102C4000D3E92E014FF00002544B01F00DFA024679
:102C50000B4643EC172BB0EE470AF0EE670A00F084
:102C6000C7FF53EC102B1046194601F097FC0346A2
:102C70009C4203D301238DF807304EE0464BD3E945
:102C80003001454BD3E9342301F056FC0346002BB9
:102C90001ED1414B93F802213F4B93F801319A42E8
:102CA00016D13D4B032283F8F3203B4B0022C3F89F
:102CB000E420394BD3E930014FF000024FF080435C
:102CC00001F0FCFA02460B463349C1E9302324E007
:102CD000334BD3E90001304BD3E9322301F02CFC14
:102CE0000346002B00D118E09DF80330184601F090
:102CF00051F9294BD3E92A2301F01EFC0346002B8E
:102D000000D00AE0244BD3E932232349C1E9302320
:102D100001238DF8073000E000BF9DF80630002B3E
:102D200009D01D4B012283F8F3201B4BD3E930233C
:102D30001B49C1E900239DF80730002B09D0164B31
:102D4000012283F8F320144BD3E930231449C1E95D
:102D50000023114B93F8F430012B23D1104B5A7AF6
:102D60000D4B93F804319A4240F091810A4B0222B4
:102D700083F8F420084B052283F8F520064B93F8DE
:102D80000021054B83F80221034B93F80021024BED
:102D900083F803217BE100BF1009002000001040F0
:102DA00000090020B64B5A7AB64B93F805319A4287
:102DB00008D1B44B002283F8F520B24B012283F8EE
:102DC000F42064E1AF4B93F8F530013B032B00F2A4
:102DD000088101A252F823F0E92D00081B2E0008FB
:102DE0004D2E0008192F0008A64B93F800319DF8CE
:102DF00004209A4240F03C81A24B052283F8F52042
:102E0000A04B93F800219F4B83F802219D4B93F830
:102E100000219C4B83F803212AE19A4B93F800315F
:102E20009DF805209A4240F02581964B052283F8B3
:102E3000F520944B93F80021924B83F80221914B9B
:102E400093F800218F4B83F8032113E18D4B93F806
:102E500003218C4B93F801319A4211D1894B93F89D
:102E600001319DF804209A420AD1864B012283F851
:102E7000F520844B93F80021824B83F803214AE02C
:102E8000804B93F800319DF804209A420CD09DF8B5
:102E90000330184601F07EF87A4BD3E92A2301F07B
:102EA0004BFB0346002B10D1764B052283F8F5200F
:102EB000744B93F80021734B83F80221714B93F804
:102EC0000021704B83F8032125E06E4BD3F8E040DE
:102ED0006C4BD3E928014FF000026B4B01F0C4F8B2
:102EE00002460B4643EC172BB0EE470AF0EE670A9A
:102EF00000F07EFE53EC102B1046194601F04EFBFD
:102F000003469C42C0F0B8805E4B93F801215D4BB4
:102F100083F80321B0E0AFE05A4B93F800319DF8FD
:102F200005209A420CD09DF80330184601F032F883
:102F3000544BD3E92A2301F0FFFA0346002B10D1AA
:102F4000504B052283F8F5204E4B93F800214D4B52
:102F500083F802214B4B93F800214A4B83F803215D
:102F60003EE0484B93F80221464B93F801319A42D8
:102F700011D1444B93F801319DF805209A420AD1B2
:102F8000404B022283F8F5203E4B93F800213D4B45
:102F900083F8022124E03B4BD3F8E040394BD3E9DE
:102FA00028014FF00002384B01F05EF802460B4654
:102FB00043EC172BB0EE470AF0EE670A00F018FE5C
:102FC00053EC102B1046194601F0E8FA03469C42D8
:102FD00054D32C4B93F801212A4B83F802214DE066
:102FE0004CE0284B93F801319DF804209A421BD104
:102FF0009DF80330184600F0CDFF224BD3E92A2379
:1030000001F09AFA0346002B0ED01E4B032283F8E0
:10301000F5201C4B0022C3F8E0201A4B93F8002146
:10302000184B83F8032131E0164B93F801319DF8DA
:1030300005209A422AD19DF80330184600F0AAFFD5
:10304000104BD3E92A2301F077FA0346002B00D175
:103050001CE00C4B042283F8F5200A4B0022C3F835
:10306000E020084B93F80021064B83F802210DE085
:1030700000BF0CE000BF0AE000BF08E000BF06E0B0
:1030800000090020100900200000104000BFA54BDF
:1030900093F8F630012B1CD1A34B5A7AA14B93F82D
:1030A00004319A4240F0C7809E4B022283F8F620FA
:1030B0009C4B032283F8F7209A4BD3E932239A4999
:1030C000C1E90023974BD3E932239649C1E9302364
:1030D000B1E0954B5A7A934B93F805319A420DD152
:1030E000904B002283F8F7208E4B012283F8F620C4
:1030F0008C4B93F805218C4BDA729CE0894B93F84A
:10310000F730012B02D0022B38D082E09DF803303B
:10311000184600F03FFF834BD3E92A2301F00CFA55
:103120000346002B0DD17F4B022283F8F7207D4B05
:103130000022C3F8E8207B4B93F804217A4BDA7223
:1031400079E0794BD3E90001764BD3E9322301F0E2
:10315000F3F90346002B00D16DE0724B032283F894
:10316000F720704BD3E932236F49C1E900236D4B3F
:10317000D3E932236B49C1E930235CE09DF8033089
:10318000184600F007FF674BD3E92A2301F0D4F972
:103190000346002B09D0634B93F80521624BDA728A
:1031A000604B012283F8F72044E05E4BD3F8E840FF
:1031B0005C4BD3E92C014FF000025C4B00F054FF54
:1031C00002460B4643EC172BB0EE470AF0EE670AB7
:1031D00000F00EFD53EC102B1046194601F0DEF9FD
:1031E00003469C4226D34F4B93F805214E4BDA728F
:1031F0004C4B032283F8F7204A4BD3E932234A4948
:10320000C1E90023474BD3E932234649C1E93023C2
:1032100010E0454BD3E90001424BD3E9322301F0E2
:1032200095F90346002B00D105E03E4B012283F8BF
:10323000F72000E000BF3B4BDB6F3B4AD27A1146E0
:103240001846FFF7BAF9374BD3F8DC30B3F1FF3F3C
:1032500006D0344BD3F8DC300133324AC2F8DC30CC
:10326000304B93F8F130002B0DD12E4B012283F817
:10327000F1202C4B022283F8EF202A4B93F8FF20F9
:10328000294B9A729CE0274B93F8EF30012B7BD1AE
:10329000254BD3E90001234BD3E9262301F04CF958
:1032A0000346002B0DD01F4B002283F8F0201D4B4E
:1032B000022283F8EF201B4B93F8FF201A4B9A72DF
:1032C0007EE0184B93F8F030012B31D1154BD3F839
:1032D000DC40154BD3E900014FF00002134B00F026
:1032E000C3FE02460B4643EC172BB0EE470AF0EE46
:1032F000670A00F07DFC53EC102B1046194601F0D4
:103300004DF903469C425BD3064B022283F8F02022
:10331000044B0022C3F8DC20024B93F8FE20024B42
:103320009A724DE0100900200009002000001040B2
:10333000294BD3F8DC40294BD3E900014FF00002C0
:10334000274B00F091FE02460B4643EC172BB0EEE4
:10335000470AF0EE670A00F04BFC53EC102B1046C6
:10336000194601F01BF903469C4229D31A4B01224E
:1033700083F8F020184B0022C3F8DC20164B93F89A
:10338000FF20164B9A721BE0144BD3E90001124B3D
:10339000D3E9262301F0DAF80346002B10D00E4BB8
:1033A000012283F8EF200C4B022283F8F0200A4B15
:1033B0000022C3F8DC20084B93F8FE20074B9A72DA
:1033C000054BDB6E054A927A11461846FFF7F5F871
:1033D00000BF02B010BD00BF10090020000900208E
:1033E0000000104000B585B0B14B00221A601022D9
:1033F0000021B04801F0EAFC4FF488720021AE4889
:1034000001F0E4FCAC4B00221A76AB4B012283F8AE
:103410000A21AA4BD3E90423A749C1E90A23A84BEF
:103420000393A54B0122DA6138230293002102980D
:10343000FEF7E0FF0246039BDA609F4B012283F810
:1034400020209D4B002283F880209B4B012283F893
:1034500008219C4B0193984B0122C3F884200D2333
:10346000029301210298FEF7C5FF0246019BDA6034
:10347000914B012283F888208F4B002283F848204B
:103480008D4B012283F80C218C4BD3E900238A4910
:10349000C1E916238C4B0393874B0122DA642E2358
:1034A000029300210298FEF7A5FF0246039BDA6013
:1034B000814B012283F850207F4B002283F830207B
:1034C0007D4B012283F80B217C4BD3E902237A49FF
:1034D000C1E910237D4B0393774B01225A632F23BD
:1034E000029300210298FEF785FF0246039BDA60F3
:1034F000714B012283F838206F4B00221A706E4BFB
:10350000012283F809216D4BD3E906236A49C1E9F9
:103510000423694B0393684B01225A6035230293BD
:1035200000210298FEF766FF0246039BDA60624BB9
:1035300001221A72604B002283F870205E4B012238
:1035400083F80721624B01935B4B01225A670B23DF
:10355000029301210298FEF74DFF0246019BDA60BB
:10356000554B012283F87820534B002283F86020CA
:10357000514B012283F80621564B01934E4B0122F9
:103580005A660C23029301210298FEF733FF02468C
:10359000019BDA60484B012283F86820464B0022E9
:1035A00083F8EC20444B002283F8ED20424B0022AC
:1035B000C3F8D820404B002283F8EE203E4B012276
:1035C00083F8F9203C4B002283F8FA203A4B002282
:1035D00083F8FB20384B012283F8FC20364B002275
:1035E00083F8FD2034494FF000023B4BC1E924230E
:1035F000304B00221A722F4B00225A722E4B00229F
:1036000083F8F4202C4B002283F8F5202A4B00226B
:10361000C3F8E020284B002283F8F620264B002236
:1036200083F8F720244B0022C3F8E820224B002225
:1036300083F8F220204B002283F8F3201E4B002257
:10364000C3F8E4201C4B002283F8F8201A4B012217
:1036500083F80021184B002283F8012116494FF00E
:1036600000021D4BC1E92823134B002283F80221DD
:10367000114B002283F803210F494FF000024FF055
:103680000003C1E92A230C494FF00002134BC1E9A2
:103690002C23094B012283F80421074B002283F8D5
:1036A000052105494FF000020D4BC1E92E2319E019
:1036B000440700200009002010090020A802002073
:1036C0002809002090090020580900204009002006
:1036D00080090020700900200000F03F0000244015
:1036E0000000144020494FF000024FF00003C1E9F0
:1036F00030231D494FF000021C4BC1E932231A4907
:103700004FF000021A4BC1E934231A4B0022DA723F
:1037100018494FF000024FF00003C1E90023124B9B
:10372000002283F8EF20104B002283F8F0200E4B8C
:103730000022C3F8DC200C4B002283F8F1200A4B56
:10374000012283F8FE20084B002283F8FF2006495F
:103750004FF00002054BC1E92623064B00229A7266
:1037600000BF05B05DF804FB100900200000104008
:103770000000D03F0009002008B5504B1B7E002BF5
:1037800010D14E4B01221A764C4BDB69012B09D12B
:103790004A4B93F82030002B04D0484B5B6A184604
:1037A000FEF722FF454B93F88030002B13D1434B9B
:1037B000012283F88020414BD3F88430012B0AD1B9
:1037C0003E4B93F88830002B05D03C4BD3F88C301F
:1037D0001846FEF709FF394B93F84830002B11D1FA
:1037E000364B012283F84820344BDB6C012B09D186
:1037F000324B93F85030002B04D0304B5B6D1846A1
:10380000FEF7F2FE2D4B93F83030002B11D12B4BED
:10381000012283F83020294B5B6B012B09D1274B08
:1038200093F83830002B04D0244BDB6B1846FEF79E
:10383000DBFE224B1B78002B0FD1204B01221A708C
:103840001E4B5B68012B08D11C4B1B7A002B04D04C
:103850001A4BDB681846FEF7C7FE184B93F870301A
:10386000002B11D1154B012283F87020134B5B6F95
:10387000012B09D1114B93F87830002B04D00F4B5A
:10388000DB6F1846FEF7B0FE0C4B93F86030002B50
:1038900011D10A4B012283F86020084B5B6E012B8B
:1038A00009D1064B93F86830002B04D0034BDB6E34
:1038B0001846FEF799FE00BF08BD00BF10090020A2
:1038C00008B50F4B1B785A1CD1B20D4A1170002B52
:1038D00009D00C4B01221A60094B1B78013BDAB26C
:1038E000074B1A700BE062B600BFFEF7A5FE72B67A
:1038F00000BF034B1B78013BDAB2014B1A7008BDC5
:103900004C0700204807002000B583B04FF07A53E1
:103910000193244B0093244B00221A70234B002266
:103920001A7001DFFDF7BEFE00F044F8FEF704FC5C
:103930001F4B1B6800221A60FFF754FD9DED010A22
:1039400000F0B0F81A4B1B681B68002B0CBF01235A
:103950000023DBB21A46154B1A7062B600BF15E0A1
:10396000134B1B681B68002B14BF01230023DBB221
:103970001A460D4B1A700C4B1B78DBB2002B0CBF98
:1039800001230023DBB21A46084B1A70074B1B7841
:10399000DBB2002BE4D1FFF7EFFE0023184603B0A3
:1039A0005DF804FB0000A842210A0020200A002044
:1039B0001C5B000800BF704782B0034600918DF881
:1039C00007309DF90730002B0ADB009BDAB20C4967
:1039D0009DF907301201D2B20B4483F800230BE0AB
:1039E000009BDAB207499DF8073003F00F03043B50
:1039F0001201D2B20B441A7600BF02B0704700BF6A
:103A000000E100E000ED00E000B583B00190019B13
:103A1000013BB3F1807F01D301230FE0094A019BF1
:103A2000013B53600F214FF0FF30FFF7C5FF054BFF
:103A300000229A60034B07221A600023184603B045
:103A40005DF804FB10E000E008B5BFF34F8F00BF46
:103A5000BFF36F8F00BF0C4B1A680C4B1B689A4268
:103A600002D3094B00221A60074B1B685A1C0649F7
:103A70000A60002B05D172B600BFFFF721FF62B6C6
:103A800000BF00BF08BD00BF280A0020240A002094
:103A9000034B5B68024A43F08053536000BF70479A
:103AA00000ED00E000B585B08DED010A224B1B68EA
:103AB00007EE903AB8EE677ADDED017A67EE277A85
:103AC000FCEEE77A17EE903A0393039BB3F1807F05
:103AD00018D3039B07EE903AB8EE677ADFED176ACA
:103AE000C7EE267AFCEEE77A17EE903A0133144AD5
:103AF0001360134B1B68039AB2FBF3F31846FFF7EE
:103B000083FF05E00E4B00221A600398FFF77CFF4D
:103B10000C4B00221A600C4A0C4B1A600F216FF0FC
:103B20000400FFF749FF0F216FF00100FFF744FF8A
:103B300000BF05B05DF804FBA4020020FFFF7F4B2F
:103B4000240A0020280A0020493A00082C0A0020F4
:103B5000EFF3008001B5EFF3118003B41EF0100FF6
:103B600008BFB0EE400A0A48006803B488B004A059
:103B700006904FF0807007906FF006008646704701
:103B800003BC8047BFF36F8F00DFFEE700BF00007C
:103B90002C0A00201EF0100F08BFB0EE400A1EF0E5
:103BA000040F0CBFEFF30880EFF30980816911F86F
:103BB000020C10B101280DD00BE01EF0100F0CBF4D
:103BC0001AB008B003BC80F3118803BC80F30088EE
:103BD0000847FEE74EF61451CEF200010A6842F0A3
:103BE00001020A607047F4E700BF00BF0000000058
:103BF00051EC100BF8B5C1F30A53A3F2FF35132DA6
:103C000010EE106A0C4632DC002D1EDB364F2F41C1
:103C100001EA070303432FD031A3D3E9002300F0C7
:103C20006DF80022002300F0AFFC48B1002C04DD49
:103C30004FF4801343FA05F52C4424EA07040026C8
:103C40002346324643EC102BF8BD25A3D3E90023CD
:103C500000F054F80022002300F096FC0028EFD07A
:103C6000002C39DB264333D0204C0026E8E7332DE7
:103C700005DDB5F5806F23D041EC100BF8BDA3F244
:103C800013434FF0FF37DF400742F5D014A3D3E9C9
:103C9000002300F033F80022002300F075FC002818
:103CA000CED0002C09DD142D14D00123C5F134052C
:103CB00003FA05F5AE1928BFE41826EA0706BFE7A0
:103CC00010EE102A0B4600F019F841EC100BF8BD6D
:103CD0003446B5E70134F0E700264FF00044AFE783
:103CE0009C7500883CE4377EFFFF0F000000F03F2A
:103CF00081F0004102E000BF83F0004330B54FEA9D
:103D000041044FEA430594EA050F08BF90EA020F09
:103D10001FBF54EA000C55EA020C7FEA645C7FEA9C
:103D2000655C00F0E2804FEA5454D4EB5555B8BFBF
:103D30006D420CDD2C4480EA020281EA030382EA30
:103D4000000083EA010180EA020281EA0303362DC2
:103D500088BF30BD11F0004F4FEA01314FF4801C95
:103D60004CEA113102D0404261EB410113F0004FA7
:103D70004FEA03334CEA133302D0524263EB43035E
:103D800094EA050F00F0A780A4F10104D5F1200EFC
:103D90000DDB02FA0EFC22FA05F2801841F1000157
:103DA00003FA0EF2801843FA05F359410EE0A5F12B
:103DB00020050EF1200E012A03FA0EFC28BF4CF05C
:103DC000020C43FA05F3C01851EBE37101F0004512
:103DD00007D54FF0000EDCF1000C7EEB00006EEB1F
:103DE0000101B1F5801F1BD3B1F5001F0CD34908A9
:103DF0005FEA30004FEA3C0C04F101044FEA445200
:103E000012F5800F80F09A80BCF1004F08BF5FEA86
:103E1000500C50F1000041EB045141EA050130BD66
:103E20005FEA4C0C404141EB0101013C28BFB1F578
:103E3000801FE9D291F0000F04BF01460020B1FAC3
:103E400081F308BF2033A3F10B03B3F120020CDA96
:103E50000C3208DD02F1140CC2F10C0201FA0CF074
:103E600021FA02F10CE002F11402D8BFC2F1200CD9
:103E700001FA02F120FA0CFCDCBF41EA0C0190408F
:103E8000E41AA2BF01EB0451294330BD6FEA0404D8
:103E90001F3C1CDA0C340EDC04F11404C4F12002C3
:103EA00020FA04F001FA02F340EA030021FA04F3D5
:103EB00045EA030130BDC4F10C04C4F1200220FA2C
:103EC00002F001FA04F340EA0300294630BD21FA6A
:103ED00004F0294630BD94F0000F83F4801306BF30
:103EE00081F480110134013D4EE77FEA645C18BF24
:103EF0007FEA655C29D094EA050F08BF90EA020FBB
:103F000005D054EA000C04BF1946104630BD91EAB2
:103F1000030F1EBF0021002030BD5FEA545C05D1B5
:103F20004000494128BF41F0004130BD14F58004F4
:103F30003CBF01F5801130BD01F0004545F0FE4168
:103F400041F470014FF0000030BD7FEA645C1ABF9D
:103F5000194610467FEA655C1CBF0B46024650EAD4
:103F6000013406BF52EA033591EA030F41F4002100
:103F700030BD00BF90F0000F04BF0021704730B586
:103F80004FF4806404F132044FF000054FF000015B
:103F900050E700BF90F0000F04BF0021704730B51C
:103FA0004FF4806404F1320410F0004548BF4042F1
:103FB0004FF000013EE700BF42004FEAE2014FEA46
:103FC00031014FEA02701FBF12F07F4393F07F4F21
:103FD00081F06051704732F07F4208BF704793F024
:103FE0007F4F04BF41F40021704730B54FF4607437
:103FF00001F0004521F000411CE700BF50EA01023A
:1040000008BF704730B54FF000050AE050EA0102E2
:1040100008BF704730B511F0004502D5404261EB52
:1040200041014FF4806404F132045FEA915C3FF493
:10403000D8AE4FF003025FEADC0C18BF03325FEA30
:10404000DC0C18BF033202EBDC02C2F1200300FAE1
:1040500003FC20FA02F001FA03FE40EA0E0021FA06
:1040600002F11444BDE600BF70B54FF0FF0C4CF4F4
:10407000E06C1CEA11541DBF1CEA135594EA0C0FA6
:1040800095EA0C0F00F0DEF82C4481EA030621EAE1
:104090004C5123EA4C5350EA013518BF52EA03351C
:1040A00041F4801143F4801338D0A0FB02CE4FF0CE
:1040B0000005E1FB02E506F00042E0FB03E54FF0FE
:1040C0000006E1FB03569CF0000F18BF4EF0010EF6
:1040D000A4F1FF04B6F5007F64F5407404D25FEAF2
:1040E0004E0E6D4146EB060642EAC62141EA5551A5
:1040F0004FEAC52040EA5E504FEACE2EB4F1FD0CE7
:1041000088BFBCF5E06F1ED8BEF1004F08BF5FEA64
:10411000500E50F1000041EB045170BD06F0004616
:1041200046EA010140EA020081EA0301B4EB5C04C3
:10413000C2BFD4EB0C0541EA045170BD41F48011BB
:104140004FF0000E013C00F3AB8014F1360FDEBFE0
:10415000002001F0004170BDC4F10004203C35DABC
:104160000C341BDC04F11404C4F1200500FA05F33F
:1041700020FA04F001FA05F240EA020001F00042E0
:1041800021F0004110EBD37021FA04F642EB060156
:104190005EEA430E08BF20EAD37070BDC4F10C0480
:1041A000C4F1200500FA04F320FA05F001FA04F244
:1041B00040EA020001F0004110EBD37041F1000130
:1041C0005EEA430E08BF20EAD37070BDC4F120053B
:1041D00000FA05F24EEA020E20FA04F301FA05F2A3
:1041E00043EA020321FA04F001F0004121FA04F24B
:1041F00020EA020000EBD3705EEA430E08BF20EA1B
:10420000D37070BD94F0000F0FD101F00046400054
:1042100041EB010111F4801F08BF013CF7D041EAD6
:10422000060195F0000F18BF704703F000465200DA
:1042300043EB030313F4801F08BF013DF7D043EAAB
:104240000603704794EA0C0F0CEA135518BF95EA61
:104250000C0F0CD050EA410618BF52EA4306D1D1E8
:1042600081EA030101F000414FF0000070BD50EA07
:10427000410606BF1046194652EA430619D094EA91
:104280000C0F02D150EA013613D195EA0C0F05D17B
:1042900052EA03361CBF104619460AD181EA0301CF
:1042A00001F0004141F0FE4141F470014FF0000087
:1042B00070BD41F0FE4141F4780170BD70B54FF022
:1042C000FF0C4CF4E06C1CEA11541DBF1CEA1355A2
:1042D00094EA0C0F95EA0C0F00F0A7F8A4EB050484
:1042E00081EA030E52EA03354FEA013100F088807B
:1042F0004FEA03334FF0805545EA131343EA126344
:104300004FEA022245EA111545EA10654FEA0026F8
:104310000EF000419D4208BF964244F1FD0404F5B1
:10432000407402D25B084FEA3202B61A65EB03050D
:104330005B084FEA32024FF480104FF4002CB6EBCA
:10434000020E75EB030E22BFB61A754640EA0C004A
:104350005B084FEA3202B6EB020E75EB030E22BF8A
:10436000B61A754640EA5C005B084FEA3202B6EBCB
:10437000020E75EB030E22BFB61A754640EA9C008A
:104380005B084FEA3202B6EB020E75EB030E22BF5A
:10439000B61A754640EADC0055EA060E18D04FEA18
:1043A000051545EA16754FEA06164FEAC30343EAB8
:1043B00052734FEAC2025FEA1C1CC0D111F4801F85
:1043C0000BD141EA00014FF000004FF0004CB6E77E
:1043D00011F4801F04BF01430020B4F1FD0C88BF1D
:1043E000BCF5E06F3FF6AFAEB5EB030C04BFB6EB28
:1043F000020C5FEA500C50F1000041EB045170BD1B
:104400000EF0004E4EEA113114EB5C04C2BFD4EB47
:104410000C0541EA045170BD41F480114FF0000ECB
:10442000013C90E645EA060E8DE60CEA135594EA47
:104430000C0F08BF95EA0C0F3FF43BAF94EA0C0F4A
:104440000AD150EA01347FF434AF95EA0C0F7FF4BF
:1044500025AF104619462CE795EA0C0F06D152EA13
:1044600003353FF4FDAE1046194622E750EA4106F7
:1044700018BF52EA43067FF4C5AE50EA41047FF408
:104480000DAF52EA43057FF4EBAE12E74FF0FF3C6D
:1044900006E000BF4FF0010C02E000BF4FF0010C3E
:1044A0004DF804CD4FEA410C7FEA6C5C4FEA430CB7
:1044B00018BF7FEA6C5C1BD001B050EA410C0CBF06
:1044C00052EA430C91EA030F02BF90EA020F002068
:1044D000704710F1000F91EA030F58BF994208BFCF
:1044E00090422CBFD8176FEAE37040F0010070478C
:1044F0004FEA410C7FEA6C5C02D150EA013C07D1E3
:104500004FEA430C7FEA6C5CD6D152EA033CD3D02D
:104510005DF8040B704700BF8446104662468C4627
:104520001946634600E000BF01B5FFF7B7FF00285A
:1045300048BF10F1000F01BD4DF808EDFFF7F4FF83
:104540000CBF012000205DF808FB00BF4DF808ED0E
:10455000FFF7EAFF34BF012000205DF808FB00BF31
:104560004DF808EDFFF7E0FF94BF012000205DF853
:1045700008FB00BF4DF808EDFFF7CEFF94BF012008
:1045800000205DF808FB00BF4DF808EDFFF7C4FF01
:1045900034BF012000205DF808FB00BF4A0011D2A3
:1045A00012F5001211D20DD56FF47873B3EB62528D
:1045B0000ED44FEAC12343F0004343EA505323FA99
:1045C00002F070474FF00000704750EA013002D10E
:1045D0004FF0FF3070474FF00000704753B94AB9B1
:1045E000002908BF00281CBF4FF0FF314FF0FF30FB
:1045F00000F06EB9ADF1080C6DE904CE00F006F8DC
:10460000DDF804E0DDE9022304B070472DE9F0474E
:10461000089D04468C46002B40F083808A42174652
:1046200047D9B2FA82F242B1C2F1200024FA00F076
:104630009140974040EA010C94404FEA1748230C00
:10464000BCFBF8F61FFA87FE08FB16C143EA0143DC
:1046500006FB0EF1994209D9FB1806F1FF3080F0F4
:104660001981994240F21681023E3B445B1AA4B282
:10467000B3FBF8F008FB103344EA034400FB0EFEE2
:10468000A64509D93C1900F1FF3380F00581A64504
:1046900040F2028102383C4440EA0640A4EB0E049A
:1046A00000261DB1D4400023C5E900433146BDE8D2
:1046B000F08702B9FFDEB2FA82F2002A50D1CB1B9A
:1046C0004FEA174E1FFA87F80126B3FBFEFC210CB8
:1046D0000EFB1C3341EA034108FB0CF38B4207D964
:1046E00079180CF1FF3002D28B4200F2E980844647
:1046F000C91AA3B2B1FBFEF00EFB101143EA01444C
:1047000008FB00F8A04507D93C1900F1FF3302D29D
:10471000A04500F2D9801846A4EB080440EA0C40FA
:10472000BFE78B4209D9002D00F0B1800026C5E912
:10473000000130463146BDE8F087B3FA83F6002E1B
:104740004AD18B4202D3824200F2B880841A61EBD4
:10475000030101208C46002DA8D0C5E9004CA5E737
:10476000C2F1200320FA03F6974001FA02F04FEA63
:10477000174ED9403043030CB1FBFEF61FFA87F801
:104780000EFB161143EA014306FB08F1994204FAB5
:1047900002F409D9FB1806F1FF3C80F08D809942A4
:1047A00040F28A80023E3B445B1A81B2B3FBFEF0CA
:1047B0000EFB103341EA034100FB08F38B4207D99B
:1047C000791800F1FF3C73D28B4271D90238394419
:1047D000CB1A40EA064678E7C6F1200C03FA06F445
:1047E00022FA0CF31C4320FA0CF701FA06F34FEA05
:1047F000144E21FA0CF11F433B0CB1FBFEF91FFADA
:1048000084F80EFB191143EA014109FB08FA8A45B5
:1048100002FA06F200FA06F308D9611809F1FF302E
:1048200048D28A4546D9A9F102092144A1EB0A01DF
:10483000BFB2B1FBFEF00EFB101147EA014700FBCF
:1048400008F8B84507D9E71900F1FF312ED2B8456D
:104850002CD90238274440EA0940A7EB0807A0FBFF
:1048600002894F45C64649461AD317D05DB1B3EB0E
:104870000E0267EB010707FA0CFCF2404CEA020259
:10488000F740C5E9002700263146BDE8F0872E46EF
:1048900028460BE70646E9E61846FDE64345E5D21D
:1048A000B8EB020E69EB04010138DFE70846D2E7F6
:1048B00060468DE78146B9E7664675E730464AE7C8
:1048C000ACF1020C394413E702383C4424E700BF42
:1048D000704700BF014B1868704700BFE00500201B
:1048E00008B5074B044613B10021AFF30080054B18
:1048F0001868836A03B198472046FCF749FA00BF5D
:1049000000000000805B00088A892DE9F04105461F
:1049100010070C4658D44B68002B05DC0B6C002BA1
:1049200002DC0020BDE8F081E66A002EF9D0002309
:1049300012F480522F682B6032D0606DA3895A0721
:1049400005D56368C01A636B0BB1236CC01A0023D2
:104950000246E66A216A2846B047431CA38906D16D
:1049600029681D292CD82A4ACA40D60728D50022F2
:104970006260D9042269226004D5421C01D12B68EF
:1049800003B96065616B2F600029CAD004F144034C
:10499000994202D0284600F021FA00206063C1E766
:1049A000216A01232846B047411CC7D12B68002B40
:1049B000C4D01D2B01D0162B01D12F60B1E7A389E4
:1049C00043F04003A381ADE70F69002FA9D09307FF
:1049D0000E6808BF4B690F6018BF0023A6EB0708DD
:1049E0008B60B8F1000F9CDD216AA66A43463A4607
:1049F0002846B047002806DCA38943F04003A38182
:104A00004FF0FF308EE70744A8EB0008E9E700BF4E
:104A10000100402038B50B6905460C4613B9002546
:104A2000284638BD18B183690BB900F099F8144BCA
:104A30009C421BD16C68B4F90C30002BEFD0626E35
:104A4000D00704D4990502D4A06D00F04CF9284693
:104A50002146FFF759FF636EDA070546E0D4A389C4
:104A60009B05DDD4A06D00F03FF9D9E7054B9C42D2
:104A700001D1AC68DFE7044B9C4208BFEC68DAE781
:104A8000405B0008605B0008205B0008014620B91D
:104A9000044B0549186800F0E1B8044B1868FFF7AB
:104AA000B9BF00BF805B0008154A0008E005002080
:104AB000002310B50446C0E90033C0E90433836025
:104AC00081814366C2818361194608225C3000F00F
:104AD0007DF9054B6362054BA362054BE362054B11
:104AE0002462236310BD00BF795200089B52000866
:104AF000D3520008F7520008014900F0AFB800BFD8
:104B0000154A000870B54A1E682555430E4605F142
:104B1000740100F0B3F9044640B10021C0E9001669
:104B20000C30A06005F1680200F050F9204670BD1D
:104B3000014800F0D8B800BF380A0020014800F052
:104B4000D3B800BF380A0020014800F0CCB800BF3D
:104B5000330A0020014800F0C7B800BF330A002024
:104B600010B50446FFF7F0FFA3691BB1BDE8104084
:104B7000FFF7F0BFC4E912332365134B134A1B68D8
:104B8000A262A34204BF0123A361204600F020F8E3
:104B90006060204600F01CF8A060204600F018F885
:104BA0000022E06004216068FFF782FFA068012214
:104BB0000921FFF77DFFE06802221221FFF778FF4D
:104BC0000123A361D2E700BF805B0008F94A000817
:104BD000F8B50746FFF7ACFF1E4B1E68B36913B963
:104BE0003046FFF7BDFF4836D6E90134013B03D517
:104BF00033680BB33668F7E7B4F90C50D5B9164BE8
:104C0000E36004F15800656600F06CF8FFF796FF6A
:104C1000C4E90155C4E904552560A5610822294667
:104C200004F15C0000F0D2F8C4E90D55C4E9125556
:104C30002046F8BD6834D9E704213846FFF762FF03
:104C4000044630600028D5D1FFF778FF0C233B6085
:104C5000EEE700BF805B00080100FFFF2DE9F8438D
:104C60000646884600F148040027D4E90195B9F1C9
:104C7000010905D52468002CF7D13846BDE8F88332
:104C8000AB89012B07D9B5F90E30013303D0294682
:104C90003046C04707436835E9E7000070B50D4D61
:104CA0000D4C641BA4100026A64209D10B4D0C4CE0
:104CB00000F052FD641BA4100026A64205D170BD71
:104CC00055F8043B98470136EEE755F8043B984702
:104CD0000136F2E74806002048060020480600207A
:104CE0004C0600207047704770470000024B014699
:104CF000186800F0C3B800BFE0050020024B014671
:104D0000186800F06BB800BFE0050020000000004C
:104D100001F0FF01102A2BDB10F0070F08D010F86C
:104D2000013B013A8B422DD010F0070F42B3F6D170
:104D3000F0B441EA012141EA014122F007047FF089
:104D400000070023F0E80256083C85EA010586EAE0
:104D5000010685FA47F5A3FA87F586FA47F6A5FA1C
:104D600087F68EB9EED1F0BC01F0FF0102F0070228
:104D700032B110F8013B013A83EA010313B1F8D1D3
:104D80000020704701387047002D06BF35460338B4
:104D9000073815F0010F07D1013015F4807F02BFED
:104DA000013015F4C03F0130F0BC0138704700BF3E
:104DB0000A44914200F1FF3300D1704710B511F859
:104DC000014B03F8014F9142F9D110BD0244034653
:104DD000934200D1704703F8011BF9E737B500296A
:104DE00048D051F8043C0190002BA1F10404B8BF55
:104DF000E418FBF7C3FE204A01981368154633B93F
:104E00006360146003B0BDE83040FBF7BBBEA34253
:104E10000BD921686218934204BF1A685B6863600B
:104E200004BF521822602C60ECE71A465B680BB195
:104E3000A342FAD911685518A5420BD12468214420
:104E40005418A3421160DDD11C685B685360214493
:104E50001160D7E702D90C230360D3E725686119F5
:104E60008B4204BF19685B68636004BF4919216005
:104E70005460C7E703B030BD50070020F8B5CD1C23
:104E800025F0030508350C2D38BF0C25002D0646EE
:104E900001DBA94203D90C2333600020F8BDFBF7E6
:104EA0006DFE21490A6814469CB9204F3B6823B91E
:104EB0002146304600F0D0F938602946304600F0EF
:104EC000CBF9431C23D10C2333603046FBF75AFE49
:104ED000E3E723685B1B17D40B2B03D923601C4427
:104EE000256004E06368A2420CBF0B60536030464B
:104EF000FBF748FE04F10B00231D20F00700C21A47
:104F0000CCD01B1AA350C9E722466468CCE7C41C66
:104F100024F00304A042E3D0211A304600F09CF9AB
:104F20000130DDD1CFE700BF50070020540700203B
:104F30002DE9F047164699468A680B69DDF820800E
:104F40009342B8BF1346336091F8432007460C469E
:104F50000AB1013333602368990642BF33680233D4
:104F60003360256815F0060506D104F1190AE368D7
:104F700032689B1AAB4226DC94F84320131E226849
:104F800018BF012392062BD404F143024946384648
:104F9000C04701301ED02368E568326803F006037D
:104FA000042B08BFAD1AA36822690CBF25EAE5757A
:104FB00000259342C4BF9B1AED1800261A34B5424F
:104FC0001AD1002008E00123524649463846C0471E
:104FD000013003D14FF0FF30BDE8F0870135C6E75F
:104FE000E1185A1C302081F84300224494F84510FF
:104FF00082F843100233C7E7012322464946384668
:10500000C0470130E6D00136D9E700002DE9FF475F
:105010000C469146277E0C99782F80469A4604F1DB
:10502000430207D8622F0AD8002F00F0D880582FEB
:1050300000F0A38004F1420684F842703AE0A7F140
:105040006303152BF6D801A050F823F0A5500008F3
:10505000B950000835500008355000083550000898
:1050600035500008B9500008355000083550000888
:105070003550000835500008C5510008E9500008B7
:10508000A75100083550000835500008E7510008C6
:1050900035500008E9500008355000083550000828
:1050A000AF5100080B681A1D1B680A6004F1420624
:1050B00084F842300123A3E0256808682E0600F139
:1050C00004030AD505680B60002D03DA2D236D4219
:1050D00084F843305E480A2319E015F0400F056854
:1050E0000B6018BF2DB2EFE70B682568181D08602C
:1050F000280601D51D6802E06906FBD51D885448C5
:105100006F2F0CBF08230A23002184F84310666820
:10511000A660002EA2BF216821F0040121600DB914
:10512000002E4DD01646B5FBF3F103FB1157C75DBA
:1051300006F8017D2F46BB420D46F4D9082B0BD152
:105140002368DF0708D5236961689942DEBF3023F1
:1051500006F8013C06F1FF36921B2261CDF800A053
:105160004B4603AA21464046FFF7E2FE01304CD1F0
:105170004FF0FF3004B0BDE8F087354884F8457043
:1051800023680E681F0656F8045B0E6014D5D90715
:1051900044BF43F0200323601DB9236823F020039C
:1051A00023601023B0E7236843F0200323607823B3
:1051B000284884F84530E3E75E0648BFADB2E6E72D
:1051C0001646BBE70B68266860691D1D0D60350635
:1051D0001B6801D5186002E07106FBD5188000231A
:1051E00023611646BAE70B681A1D0A601E686268DA
:1051F00000213046FFF78CFD08B1801B60606368BA
:105200002361002384F84330A8E7236932464946E6
:105210004046D0470130ABD023689B0713D4E068E9
:10522000039B9842B8BF1846A4E70123324649467B
:105230004046D04701309BD00135E36803995B1AA3
:10524000AB42F2DCEBE7002504F11906F5E700BFFD
:10525000845B0008955B000838B5064D00230446C2
:1052600008462B60FBF770FC431C02D12B6803B18E
:10527000236038BD3C0A002010B50C46B1F90E1071
:1052800000F050FA0028ABBF636DA3891B1823F40C
:105290008053ACBF6365A38110BD2DE9F0411F466B
:1052A0008B89DB0505460C46164605D5B1F90E106F
:1052B0000223002200F088F8A389B4F90E1023F429
:1052C0008053A38132463B462846BDE8F04100F0BA
:1052D00059B810B50C46B1F90E1000F075F8431C22
:1052E000A38915BF606523F4805343F48053A381E1
:1052F00018BFA38110BDB1F90E1000F055B80346D8
:1053000013F8012B002AFBD1181A0138704730B569
:10531000141E05469BB0184605DA8B232B604FF010
:10532000FF301BB030BD4FF40273ADF80C3014BF2A
:1053300004F1FF332346029305934FF6FF73009168
:105340000491ADF80E3002461E9B6946284600F0D7
:10535000E9F8431CBCBF8B232B60002CE1D0009BE1
:1053600000221A70DDE7000007B5009313460A46D5
:10537000014603480068FFF7CAFF03B05DF804FB6D
:10538000E005002038B5074D0446084611460022C6
:105390002A601A46FBF78DFC431C02D12B6803B12F
:1053A000236038BD3C0A002038B5064D0023044672
:1053B00008462B60FBF760FC431C02D12B6803B14D
:1053C000236038BD3C0A002038B5074D0446084626
:1053D000114600222A601A46FBF7C0FC431C02D18A
:1053E0002B6803B1236038BD3C0A0020884210B509
:1053F00001EB020402D98442234607D8431EA1428E
:1054000008D011F8012B03F8012FF8E702440146F8
:105410008A4200D110BD13F8014D02F8014DF7E7A3
:10542000F8B5074614460E4621B9BDE8F8401146C6
:10543000FFF724BD22B9FFF7D1FC25462846F8BD69
:1054400000F082F9A0420FD221463846FFF716FD40
:1054500005460028F2D031462246FFF7A9FC314626
:105460003846FFF7BBFCE9E73546E7E72DE9F047AB
:105470008E689E4282460C4690461F4638D88A89DE
:1054800012F4906F32D025680969A5EB01096569AE
:1054900005EB450505EBD57501334B446D109D4279
:1054A00038BF1D46530531D52946FFF7E7FC0646B0
:1054B00050B90C23CAF80030A38943F04003A381FC
:1054C0004FF0FF30BDE8F08721694A46FFF770FCD6
:1054D000A38923F4906343F08003A381266165616F
:1054E0004E44A5EB09052660A5603E46BE4200D9A4
:1054F0003E46324620684146FFF778FFA36822689F
:105500009B1B3244A36022600020DBE72A46FFF7A2
:1055100087FF06460028E1D121695046FFF75EFC6F
:10552000C7E700002DE9F04F98468B891B069DB018
:1055300007460D4614460ED50B6963B94021FFF7A7
:105540009DFC2860286120B90C233B604FF0FF30A0
:10555000D1E040236B610023099320238DF829308B
:10556000CDF80C803023DFF8A8818DF82A304FF079
:10557000010923469A4613F8012B0AB1252AF9D1CD
:10558000BAEB040B0BD05B46224629463846FFF7A0
:105590006DFF013000F0AA80099A5A4409929AF8E6
:1055A0000030002B00F0A28000234FF0FF32CDE945
:1055B00005230AF1010A049307938DF853301A93D7
:1055C0005446052214F8011B5148FFF7A1FB049A29
:1055D000D8B9D00644BF20238DF85330110744BFFB
:1055E0002B238DF853309AF800302A2B15D0079AC8
:1055F000544600204FF00A0C214611F8013B303B85
:10560000092B4ED9B0B1079214E0A0EB080309FAB8
:1056100003F313430493A246D2E7039B191D1B68AF
:105620000391002BBBBF5B4242F00202079307933A
:10563000B8BF049223782E2B0CD163782A2B35D156
:10564000039B1A1D1B680392002BB8BF4FF0FF335A
:1056500002340593DFF8C8A0217803225046FFF7F3
:1056600057FB40B14023A0EB0A0003FA00F0049B73
:1056700003430134049314F8011B26488DF82810C5
:105680000622FFF745FB002838D0234B1BBB039BAA
:10569000073323F0070308330393099B334409932B
:1056A00067E70CFB02320C460120A5E7002301341A
:1056B000059319464FF00A0C204610F8012B303A9A
:1056C000092A03D9002BC5D00591C3E70CFB0121A2
:1056D00004460123F0E703AB00932A460F4B04A9CD
:1056E0003846AFF30080421C0646D6D1AB895B0634
:1056F0003FF52CAF09981DB0BDE8F08F03AB0093C8
:105700002A46064B04A93846FFF780FCEBE700BFAA
:10571000A65B0008B05B0008000000006D540008A4
:10572000AC5B000838B5074D044608461146002218
:105730002A601A46FBF7E9FA431C02D12B6803B131
:10574000236038BD3C0A002051F8043C181F002B90
:10575000BCBF0B58C0187047F8B500BFF8BC08BCF8
:105760009E467047F8B500BFF8BC08BC9E4670471F
:1057700050696E6D6170206572726F723A20777237
:105780006F6E6720706F7274206E756D6265722E19
:10579000002E2E2E0A000A52252D34643A20253080
:1057A000386C58000A53502020203A202530386C9D
:1057B000580A4C522020203A202530386C580A5084
:1057C000432020203A202530386C580A7850535214
:1057D000203A202530386C580A50535020203A2067
:1057E0002530386C580A4D535020203A2025303847
:1057F0006C58000A43505549443A202530386C58BB
:10580000000A48465352203A202530386C580A4D39
:105810004D4653523A202530386C580A424653526E
:10582000203A202530386C580A55465352203A20E9
:105830002530386C580A44465352203A20253038D7
:105840006C580A41465352203A202530386C580093
:105850000A4D4D4641523A202530386C58000A42D4
:10586000464152203A202530386C58000A4D6F646A
:1058700065203A20546872656164000A5072697646
:10588000203A2055736572000A50726976203A20DA
:1058900050726976696C65676564000A4D6F64656E
:1058A000203A2048616E646C6572000A537461632B
:1058B0006B3A20505350000A537461636B3A204D89
:1058C0005350000A2B2B204D6265644F53204661D4
:1058D000756C742048616E646C6572202B2B0A0A0B
:1058E0004661756C74547970653A20004D656D4D54
:1058F000616E6167654661756C74004275734661DF
:10590000756C740055736167654661756C74004809
:105910006172644661756C74000A0A436F6E746547
:1059200078743A000A0A2D2D204D6265644F532089
:105930004661756C742048616E646C6572202D2D13
:105940000A0A004661756C74206578636570746935
:105950006F6E0000580700200000000000000000EB
:10596000910A0008E90A0008F50A0008950A0008EB
:105970007D0A00088D0A000821030008890A000832
:10598000250300082F030008830A000839030008D4
:105990003F030008450300084B03000851030008BB
:1059A0005D0300086103000867030008B90A0008E6
:1059B0006D030008BC59000800070020852200087C
:1059C0009D220008E5220008F9220008A92200080B
:1059D000C5220008FF110008D521000800000000C2
:1059E0000300000000440040D21F00000A00000035
:1059F00000100140D21F00000C0000000014014004
:105A0000D22300001700000000100140D21F000048
:105A10002700000000140140D2230000FFFF000017
:105A2000FFFFFFFF000000000200000000440040F4
:105A3000D21F00000900000000100140D21F00002A
:105A40000B00000000140140D223000016000000EB
:105A500000100140D21F0000260000000014014089
:105A6000D2230000FFFF0000FFFFFFFF0000000047
:105A70000100000002000000040000000800000017
:105A80001000000020000000400000008000000026
:105A900000010000000200000004000000080000F7
:105AA0000010000000200000004000000080000006
:105AB0004572726F723A206E657720736572696104
:105AC0006C206F626A656374206973207573696EF8
:105AD000672073616D6520554152542061732053D6
